{
  "contractName": "Token",
  "abi": [
    {
      "inputs": [],
      "stateMutability": "nonpayable",
      "type": "constructor"
    },
    {
      "inputs": [
        {
          "internalType": "address",
          "name": "",
          "type": "address"
        }
      ],
      "name": "balanceOf",
      "outputs": [
        {
          "internalType": "uint256",
          "name": "",
          "type": "uint256"
        }
      ],
      "stateMutability": "view",
      "type": "function"
    },
    {
      "inputs": [],
      "name": "decimals",
      "outputs": [
        {
          "internalType": "uint256",
          "name": "",
          "type": "uint256"
        }
      ],
      "stateMutability": "view",
      "type": "function"
    },
    {
      "inputs": [],
      "name": "symbol",
      "outputs": [
        {
          "internalType": "string",
          "name": "",
          "type": "string"
        }
      ],
      "stateMutability": "view",
      "type": "function"
    },
    {
      "inputs": [],
      "name": "tokenName",
      "outputs": [
        {
          "internalType": "string",
          "name": "",
          "type": "string"
        }
      ],
      "stateMutability": "view",
      "type": "function"
    },
    {
      "inputs": [],
      "name": "totalSupply",
      "outputs": [
        {
          "internalType": "uint256",
          "name": "",
          "type": "uint256"
        }
      ],
      "stateMutability": "view",
      "type": "function"
    },
    {
      "inputs": [
        {
          "internalType": "address",
          "name": "_to",
          "type": "address"
        },
        {
          "internalType": "uint256",
          "name": "_value",
          "type": "uint256"
        }
      ],
      "name": "transfer",
      "outputs": [
        {
          "internalType": "bool",
          "name": "success",
          "type": "bool"
        }
      ],
      "stateMutability": "nonpayable",
      "type": "function"
    }
  ],
  "bytecode": "0x60806040526040518060400160405280600881526020017f636f696e737461720000000000000000000000000000000000000000000000008152506000908051906020019061004f92919061011c565b506040518060400160405280600381526020017f434e5300000000000000000000000000000000000000000000000000000000008152506001908051906020019061009b92919061011c565b5060126002553480156100ad57600080fd5b50600254600a6100bd91906101f8565b620f42406100cb91906101f8565b600381905550600354600460003373ffffffffffffffffffffffffffffffffffffffff1673ffffffffffffffffffffffffffffffffffffffff168152602001908152602001600020819055506102b2565b82805461012890610281565b90600052602060002090601f01602090048101928261014a5760008555610191565b82601f1061016357805160ff1916838001178555610191565b82800160010185558215610191579182015b82811115610190578251825591602001919060010190610175565b5b50905061019e91906101a2565b5090565b5b808211156101bb5760008160009055506001016101a3565b5090565b6000819050919050565b7f4e487b7100000000000000000000000000000000000000000000000000000000600052601160045260246000fd5b6000610203826101bf565b915061020e836101bf565b9250817fffffffffffffffffffffffffffffffffffffffffffffffffffffffffffffffff0483118215151615610247576102466101c9565b5b828202905092915050565b7f4e487b7100000000000000000000000000000000000000000000000000000000600052602260045260246000fd5b6000600282049050600182168061029957607f821691505b6020821081036102ac576102ab610252565b5b50919050565b6106a7806102c16000396000f3fe608060405234801561001057600080fd5b50600436106100625760003560e01c806318160ddd14610067578063313ce567146100855780636c02a931146100a357806370a08231146100c157806395d89b41146100f1578063a9059cbb1461010f575b600080fd5b61006f61013f565b60405161007c9190610350565b60405180910390f35b61008d610145565b60405161009a9190610350565b60405180910390f35b6100ab61014b565b6040516100b89190610404565b60405180910390f35b6100db60048036038101906100d69190610489565b6101d9565b6040516100e89190610350565b60405180910390f35b6100f96101f1565b6040516101069190610404565b60405180910390f35b610129600480360381019061012491906104e2565b61027f565b604051610136919061053d565b60405180910390f35b60035481565b60025481565b6000805461015890610587565b80601f016020809104026020016040519081016040528092919081815260200182805461018490610587565b80156101d15780601f106101a6576101008083540402835291602001916101d1565b820191906000526020600020905b8154815290600101906020018083116101b457829003601f168201915b505050505081565b60046020528060005260406000206000915090505481565b600180546101fe90610587565b80601f016020809104026020016040519081016040528092919081815260200182805461022a90610587565b80156102775780601f1061024c57610100808354040283529160200191610277565b820191906000526020600020905b81548152906001019060200180831161025a57829003601f168201915b505050505081565b600081600460003373ffffffffffffffffffffffffffffffffffffffff1673ffffffffffffffffffffffffffffffffffffffff16815260200190815260200160002060008282546102d091906105e7565b9250508190555081600460008573ffffffffffffffffffffffffffffffffffffffff1673ffffffffffffffffffffffffffffffffffffffff1681526020019081526020016000206000828254610326919061061b565b925050819055506001905092915050565b6000819050919050565b61034a81610337565b82525050565b60006020820190506103656000830184610341565b92915050565b600081519050919050565b600082825260208201905092915050565b60005b838110156103a557808201518184015260208101905061038a565b838111156103b4576000848401525b50505050565b6000601f19601f8301169050919050565b60006103d68261036b565b6103e08185610376565b93506103f0818560208601610387565b6103f9816103ba565b840191505092915050565b6000602082019050818103600083015261041e81846103cb565b905092915050565b600080fd5b600073ffffffffffffffffffffffffffffffffffffffff82169050919050565b60006104568261042b565b9050919050565b6104668161044b565b811461047157600080fd5b50565b6000813590506104838161045d565b92915050565b60006020828403121561049f5761049e610426565b5b60006104ad84828501610474565b91505092915050565b6104bf81610337565b81146104ca57600080fd5b50565b6000813590506104dc816104b6565b92915050565b600080604083850312156104f9576104f8610426565b5b600061050785828601610474565b9250506020610518858286016104cd565b9150509250929050565b60008115159050919050565b61053781610522565b82525050565b6000602082019050610552600083018461052e565b92915050565b7f4e487b7100000000000000000000000000000000000000000000000000000000600052602260045260246000fd5b6000600282049050600182168061059f57607f821691505b6020821081036105b2576105b1610558565b5b50919050565b7f4e487b7100000000000000000000000000000000000000000000000000000000600052601160045260246000fd5b60006105f282610337565b91506105fd83610337565b9250828210156106105761060f6105b8565b5b828203905092915050565b600061062682610337565b915061063183610337565b9250827fffffffffffffffffffffffffffffffffffffffffffffffffffffffffffffffff03821115610666576106656105b8565b5b82820190509291505056fea2646970667358221220d810745ccafe382e74bf5597b141146d1bbbef184d2b24dd0ece959dfdde745764736f6c634300080d0033",
  "immutableReferences": {},
  "source": "// SPDX-License-Identifier: MIT\r\npragma solidity ^0.8.13;\r\n\r\n\r\n/**\r\n * @title SafeMath\r\n * @dev Math operations with safety checks that throw on error\r\n */\r\nlibrary SafeMath {\r\n\r\n  /**\r\n  * @dev Multiplies two numbers, throws on overflow.\r\n  */\r\n  function mul(uint256 a, uint256 b) internal pure returns (uint256 c) {\r\n    if (a == 0) {\r\n      return 0;\r\n    }\r\n    c = a * b;\r\n    assert(c / a == b);\r\n    return c;\r\n  }\r\n\r\n  /**\r\n  * @dev Integer division of two numbers, truncating the quotient.\r\n  */\r\n  function div(uint256 a, uint256 b) internal pure returns (uint256) {\r\n    // assert(b > 0); // Solidity automatically throws when dividing by 0\r\n    // uint256 c = a / b;\r\n    // assert(a == b * c + a % b); // There is no case in which this doesn't hold\r\n    return a / b;\r\n  }\r\n\r\n  /**\r\n  * @dev Subtracts two numbers, throws on overflow (i.e. if subtrahend is greater than minuend).\r\n  */\r\n  function sub(uint256 a, uint256 b) internal pure returns (uint256) {\r\n    assert(b <= a);\r\n    return a - b;\r\n  }\r\n\r\n  /**\r\n  * @dev Adds two numbers, throws on overflow.\r\n  */\r\n  function add(uint256 a, uint256 b) internal pure returns (uint256 c) {\r\n    c = a + b;\r\n    assert(c >= a);\r\n    return c;\r\n  }\r\n}\r\n\r\n\r\ncontract Token{\r\n\r\n    using SafeMath for uint256;\r\n\r\n    string public tokenName = \"coinstar\";\r\n    string public symbol = \"CNS\";\r\n    uint256 public decimals = 18;\r\n    uint256 public totalSupply;\r\n\r\n    // mapping the transactions records\r\n    mapping(address => uint256) public balanceOf;\r\n\r\n    constructor() {\r\n        totalSupply = 1000000 * (10 * decimals);\r\n        balanceOf[msg.sender] = totalSupply;\r\n    }\r\n\r\n    function transfer(address _to, uint256 _value) public returns (bool success) {\r\n        balanceOf[msg.sender] -= _value;\r\n        balanceOf[_to] += _value;\r\n        return true;\r\n    }\r\n\r\n    \r\n}",
  "sourcePath": "H:\\blockchain\\coinstar\\app\\src\\contracts\\Token.sol",
  "compiler": {
    "name": "solc",
    "version": "0.8.13+commit.abaa5c0e.Emscripten.clang"
  },
  "schemaVersion": "3.4.7",
  "updatedAt": "2022-05-08T08:23:36.426Z",
  "devdoc": {
    "kind": "dev",
    "methods": {},
    "version": 1
  },
  "userdoc": {
    "kind": "user",
    "methods": {},
    "version": 1
  }
}